:020000040800F2
:1000000060130020990100087B14000829120008E1
:100010003D140008D1020008E119000800000000AA
:1000200000000000000000000000000001010008C6
:10003000D3020008000000004501000881150008F7
:10004000B3010008B3010008B3010008B3010008C0
:10005000B3010008B3010008B3010008B3010008B0
:10006000B3010008B3010008B3010008B3010008A0
:10007000B3010008B3010008B3010008B301000890
:10008000B3010008B3010008B3010008B301000880
:10009000B3010008B3010008B3010008B301000870
:1000A000B301000849160008B3010008B3010008B5
:1000B000B3010008B3010008B3010008B301000850
:1000C000B3010008B3010008B3010008B301000840
:1000D000B3010008BD190008C9190008D5190008A6
:1000E000B3010008B3010008B3010008DFF80CD029
:1000F00000F0DCF800480047891C0008601300206D
:10010000224B19680868B0E8F00F80F30988BFF344
:100110006F8F4FF0000080F311884EF00D0E704786
:100120000000000006480068006880F3088862B696
:1001300061B6BFF34F8FBFF36F8F00DF00BF00BF0B
:1001400008ED00E0EFF30980BFF36F8F0F4B1A68E3
:1001500020E9F00F106008B54FF0500080F31188CF
:10016000BFF34F8FBFF36F8F02F054FA4FF00000D0
:1001700080F31188BDE8084019680868B0E8F00FFE
:1001800080F30988BFF36F8F704700BF38000020ED
:10019000EFF3058070470000064880470648004797
:1001A000FEE7FEE7FEE7FEE7FEE7FEE7FEE7FEE727
:1001B000FEE7FEE701160008ED00000840EA010333
:1001C0009B0703D009E008C9121F08C0042AFAD20D
:1001D00003E011F8013B00F8013B521EF9D27047D1
:1001E000D2B201E000F8012B491EFBD27047002279
:1001F000F6E710B513460A4604461946FFF7F0FF26
:10020000204610BD01F0004330B421F0004150EA17
:10021000010206D00A0DA2F56072C1F31301002A93
:1002200002DC30BC00207047440F44EAC104C10026
:10023000E01830BC00EBC250AFF300800029A8BF2B
:100240007047401C490008BF20F00100704710B4FF
:10025000B0FA80FC00FA0CF050EA010404BF10BCB4
:10026000704749B1CCF1200421FA04F411FA0CF1E1
:1002700018BF012121430843A3EB0C01CB1D4FEA1A
:1002800000614FEA102042BF002010BC704700EB15
:10029000C35010440029A4BF10BC7047401C490043
:1002A00008BF20F0010010BC70470000064C074D4D
:1002B00006E0E06840F0010394E807009847103436
:1002C000AC42F6D3FFF716FFE02C0008002D000823
:1002D000FEE770477047000010B590F82110002429
:1002E000022903D00421816301243DE001680A68EA
:1002F00022F00E020A6001680A6822F001020A6018
:100300001A4A0168914201D1012121E0174A1432B1
:10031000914201D110211BE0144A2832914201D1AF
:10032000891515E0114A3C32914201D189140FE040
:100330000E4A5032914202D14FF4803108E00B4A0C
:100340006432914202D14FF4801101E04FF080718C
:10035000064A083A5160012180F82110002180F8F6
:100360002010416B01B18847204610BD08000240B3
:100370002DE9F84FDFF890A100220AF1040B144692
:1003800001274FF00F090BF1040E00BF0B6807FAAD
:1003900004F52B40AB4274D1DFF870C14E68A6EB78
:1003A0000C0866452BD00DDC032E34D005DC36B3AB
:1003B000012E19D0022E2FD11BE0112E16D0122E95
:1003C0002AD119E0B8F5881F19D006DCB8F5803FAE
:1003D00015D0B8F5801F1FD111E0B8F5001F0ED061
:1003E000B8F5041F18D10AE0CA6815E0CA68121DE2
:1003F00012E0CA6808320FE0CA680C320CE08A6862
:100400002AB1012A4FF0080203D0456104E004221A
:1004100002E0056100E00022FF2B01D8064601E062
:1004200000F104064FEA840501D9A5F12005D6F8AC
:1004300000C009FA05F82CEA080C02FA05F54CEAA6
:10044000050CC6F800C04D68ED0057D5304DAE69BB
:1004500046F00106AE61AD6924F0030605F0010522
:1004600000952C4D06EB050CDCF80850A6074FEA6A
:10047000167809FA08F6B543274EB04202D1002695
:1004800010E03BE0254EB04201D101260AE0244EA7
:10049000B04201D1022605E0224EB04201D103262E
:1004A00000E0042606FA08F62E43CCF808604D68F2
:1004B000DAF80060ED03554601D51E4300E09E4387
:1004C0002E604D68DBF80060AD035D4601D51E432C
:1004D00000E09E432E604D68DEF80060ED02754638
:1004E00001D51E4300E09E432E604D68AD020E4DC7
:1004F0002E6801D51E4300E09E432E60641C102C24
:10050000FFF444AFBDE8F88F000401400000111073
:10051000001002400000014000080140000C0140B2
:1005200000100140001401400C040140C2684A4020
:10053000C26070470AB1016170470904FBE700001F
:1005400001488068704700002800002070B5040052
:1005500011D021684CF6CC400860216845F2555016
:100560000860D4E9000141602168A0688860FFF755
:10057000E7FF054609E0012070BD00BFFFF7E0FF7F
:10058000401B302801D9032070BD2068C0680028B6
:10059000F4D121684AF6AA200860002070BD00004E
:1005A0000248816802781144816070472800002069
:1005B000074810B5016841F010010160032000F008
:1005C00093F8002000F006F800F03EF8002010BD7F
:1005D0000020024000B5014687B00022192000F03B
:1005E00063F8192000F054F81348816941F4006160
:1005F0008161806905A900F400600690684600F0FA
:100600003BF900F069F90D490D4AB0FBF1F10D48D5
:10061000491E0260416040F2E7320021C0E9032137
:10062000816000F023FB10B1012007B000BD054838
:1006300000F038FBF9E700000010024040420F00D4
:10064000002C01402C0200200F4808B5816941F0C0
:1006500001018161816901F001010091C16941F0ED
:100660008051C161C069002200F0805000900F21CC
:10067000901E00F019F80548416821F0E06141F052
:100680000071416008BD0000001002400000014000
:1006900000F01F02012191404009800000F1E0209C
:1006A000C0F8001170470000F0B40E4B1B680C46F8
:1006B000C3F30223C3F10705042D00D90425191D36
:1006C000072901D2002300E0DB1E012606FA05F10E
:1006D000491E214099409E40761E16403143F0BC91
:1006E00000F0CCBE0CED00E0064900F007020868FF
:1006F0004FF6FF03184040EA0220034A1043086007
:10070000704700000CED00E00000FA052DE9F0470D
:10071000DFF8548105460E46D8F8000000F00700C7
:10072000B0420CD2D8F8001021F007013143C8F8CC
:100730000010D8F8000000F00700B0426FD1286820
:100740004A4C810712D5400703D5606840F4E06049
:1007500060602878000703D5606840F460506060EE
:100760006068A96820F0F000084360602878C0073E
:1007700044D06868012816D02168022816D089075D
:1007800000294CDA616821F0030101436160FFF741
:10079000D7FE6968074641F2883001290ED0022948
:1007A000814618D026E021688903E9E78901E7E757
:1007B000FFF7C6FEC11B494501D918E081466068B4
:1007C000C0F381000128F3D118E000BFFFF7B8FEA5
:1007D000C11B49450BD86068C0F381000228F5D1E0
:1007E0000CE000BFFFF7ACFEC11B494502D9032056
:1007F000BDE8F087606810F00C0FF3D1D8F8001056
:10080000404601F00701B1420BD9016821F0070110
:1008100031430160006800F00700B04201D00120C0
:10082000E6E72878400705D56068E96820F4E060CD
:10083000084360602878000706D56068296920F4BD
:10084000605040EAC100606000F056F86168084AF4
:10085000C1F30311515CC840064908600020FFF74E
:10086000B9FE0020C4E70000002002400010024052
:100870008C2C0008340000200F2202600C4A5368C0
:1008800003F003034360536803F0F003836053688D
:1008900003F4E063C36052684FF4E06303EAD202FA
:1008A00002610448006800F007000860704700001B
:1008B00000100240002002400448054900684968D1
:1008C000044AC1F30221515CC84070473400002043
:1008D000001002409C2C0008044805490068496843
:1008E000044AC1F3C221515CC84070473400002063
:1008F000001002409C2C000812A185B00FC98DE8A1
:100900000F0014A0144A006804905168134801F0C5
:100910000C03042B10D0082B0ED1C1F38343C90361
:100920001DF803000AD5516804AAC1F34041515C87
:100930000A4A5043B0FBF1F005B0704708494843FC
:10094000FAE7000002030405060708090A0B0C0D6C
:100950000E0F1010010200000010024000127A0079
:1009600000093D002DE9F84F04460078B94DC00755
:1009700048D06868C0F38100012807D06868C0F3D8
:100980008100022809D16868C00306D52868800361
:1009900038D5606800286FD034E06068B0F5803FDB
:1009A0000BD010B1B0F5A02F11D0286820F4803002
:1009B0002860286820F4802002E0286840F4803015
:1009C0002860606888B1FFF7BBFD064609E028682B
:1009D00040F480202860F0E7FFF7B2FD801B642818
:1009E00075D828688003F7D50CE0FFF7A9FD064607
:1009F00005E000BFFFF7A4FD801B6428F0D828683D
:100A00008003F7D42078944E80074FF001094FF00F
:100A100000083BD5686810F00C0F07D06868C0F379
:100A20008100022809D16868C00306D428688007BD
:100A300014D5206901281FD110E02069B0B1C6F893
:100A40000090FFF77DFD074605E000BFFFF778FD4A
:100A5000C01B0228C4D828688007F7D528686169B8
:100A600020F0F80040EAC10028600FE0C6F80080DE
:100A7000FFF766FD074606E0E9E000BFFFF760FD0F
:100A8000C01B022823D828688007F7D420780007E5
:100A90002CD57248A169D9B1C0F80090FFF750FD7C
:100AA000074604E0FFF74CFDC01B02280FD8686A18
:100AB0008007F7D56A484FF4FA510068B0FBF1F0AF
:100AC000009000BF0098411E0091FAD20EE080E035
:100AD000C0F80080FFF734FD074604E0FFF730FD63
:100AE000C01B022875D8686A8007F7D420784007B1
:100AF00060D5E8690027C00008D4E86940F080505C
:100B0000E861E869012700F08050009055480168CD
:100B1000C90513D40168834641F480710160FFF771
:100B20000FFD824606E000BFFFF70AFDA0EB0A00BA
:100B300064284ED8DBF80000C005F5D5E068012830
:100B40000AD008B1052813D0286A20F001002862D5
:100B5000286A20F0040002E0286A40F001002862C0
:100B6000E06841F2883B98B1FFF7EAFC82460BE06F
:100B7000286A40F004002862EEE700BFFFF7E0FCBF
:100B8000A0EB0A0159455AD8286A8007F6D50CE02F
:100B9000FFF7D6FC824605E0FFF7D2FCA0EB0A0186
:100BA00059454CD8286A8007F6D41FB1E86920F06F
:100BB0008050E861E06988B36968C1F38101022966
:100BC00045D00228C6F8608004D0FFF7B9FC04467F
:100BD00038E034E0FFF7B4FC074604E0FFF7B0FC70
:100BE000C01B02282BD828688001F7D4206AB0F5F2
:100BF000803F05D16868A16820F400300843686030
:100C0000D4E908010843696821F474110843686055
:100C1000C6F86090FFF794FC044606E015E000BFBC
:100C2000FFF78EFC001B022809D828688001F7D541
:100C30000BE000BFFFF784FC001B022802D9032051
:100C4000BDE8F88F28688001F4D40020F8E701207F
:100C5000F6E70000001002400000424280044242D9
:100C600034000020007000407047704710B5040049
:100C700003D094F83D0010B107E0012010BD002022
:100C800084F83C00204600F00CF8022084F83D0077
:100C9000211D206800F0DEFC012084F83D000020CA
:100CA00010BD70470168CA6842F00102CA6000685E
:100CB000016841F00101016000207047704770B584
:100CC0000446006801694FF00005C943890715D43F
:100CD000C168C943890711D4E91E01610120207749
:100CE000206880698007204602D0FFF7E7FF04E014
:100CF00000F098F8204600F096F825772068016902
:100D0000C943490717D4C168C943490713D46FF0D1
:100D100004010161022020772068806910F4407F7F
:100D2000204602D0FFF7CAFF04E000F07BF820461F
:100D300000F079F8257720680169C943090716D4BE
:100D4000C168C943090712D46FF00801016104208A
:100D500020772068C0698007204602D0FFF7AEFFE9
:100D600004E000F05FF8204600F05DF82577206889
:100D70000169C943C90617D4C168C943C90613D458
:100D80006FF010010161082020772068C06910F41D
:100D9000407F204602D0FFF791FF04E000F042F8C8
:100DA000204600F040F8257720680169C943C9074B
:100DB00008D1C168C943C90704D1891E0161204611
:100DC00000F032F820680169C943090609D4C168F6
:100DD000C943090605D46FF0800101612046FFF781
:100DE00043FF20680169C943490609D4C168C94362
:100DF000490605D46FF040010161204600F01EF85D
:100E000020680169C94389060BD4C168C9438906B2
:100E100007D46FF0200101612046BDE87040FFF764
:100E200024BF70BD7047704700680349884201D1F4
:100E3000FFF7B6BB70470000002C014070477047B9
:100E400070B5026804461068D168536910F00F0F3E
:100E500050D003F0010501F4907635435DD0C20710
:100E600005D0CA0503D5E26B42F00102E2634207F6
:100E700005D5DA0703D0E26B42F00202E263820793
:100E800005D5DA0703D0E26B42F00402E263020701
:100E900005D5DA0703D0E26B42F00802E263E26BA9
:100EA000002A33D0800604D5880602D5204600F0FB
:100EB0001DFC20684069E16BC0F38010090700D475
:100EC00028B3204600F004FC2068416949061AD581
:100ED000416921F040014161606BA0B11B49416350
:100EE000606BFFF7F9F9002810D0606B416BBDE82B
:100EF00070400847830610D58B060ED52046BDE806
:100F0000704000F0F3BB2046FFF799FF70BD20460C
:100F1000FFF795FF0020E06370BD030606D50B06C2
:100F200004D52046BDE8704000F0E4BC4006F3D58F
:100F30004806F1D5D168204621F04001D16020213A
:100F400084F8391000F06FF970BD0000C116000878
:100F500070B5040004D094F83900002510B106E003
:100F6000012070BD84F83850204600F023F824207A
:100F700084F839002068C16821F40051C16020461E
:100F800000F000FC2068016921F4904101612068B3
:100F9000416921F02A0141612068C16841F4005192
:100FA000C160E563202084F8390084F83A0000200D
:100FB00070BD0000F0B585B0002400940194029447
:100FC00003940368424F022042490322424D4602E5
:100FD000BB4225D18B6943F480438B618B6903F459
:100FE000804304938B6943F004038B618969039206
:100FF00001F0040104910102CDE900106946284680
:10100000FFF7B6F9CDE90064694628460294FFF778
:10101000AFF9002205212520FFF746FB252028E017
:101020002E4FBB4229D1CB6943F40033CB61CB694E
:1010300003F4003304938B6943F004038B618969E3
:10104000039201F0040104910421CDE900106946E6
:101050002846FFF78DF90820CDE9000469462846A7
:101060000294FFF785F9002205212620FFF71CFBDB
:101070002620FFF70DFB05B0F0BD194DAB42FAD1AC
:10108000CB6943F48023CB61CB6903F480230493C1
:101090008B6943F008038B618969124D01F00801E7
:1010A000CDE90321CDE9006069462846FFF760F9E4
:1010B000E814CDE90004694628460294FFF758F980
:1010C000002205212720FFF7EFFA2720D1E70000B3
:1010D0000038014000100240000801400044004078
:1010E00000480040000C0140F8B504461AA01B4916
:1010F0000068009020681A4D4FF6FF76884209D1AB
:101100001848C28D3346816A00F030F82021284605
:10111000FFF70CFA14492068884215D133460322A0
:101120006946104800F022F810212846FFF7FEF922
:101130004FF47A74204600F039FE10212846FFF75C
:10114000F5F9204600F032FE334603226946054891
:1011500000F00CF8F8BD00001122330000480040F8
:1011600000080140AC010020004400402DE9F84394
:10117000044690F839001F4616460D46202850D1E7
:10118000A5B19EB194F8380001284AD0012084F816
:1011900038004FF00008C4F83C80212084F8390062
:1011A000FFF7CEF9A6848146E68426E00120BDE85B
:1011B000F883E08C401EE084A0684B46B0F5805F69
:1011C0004FF000024FF080012046009703D000F05E
:1011D000C2FBE8B90DE000F0BEFBC8B92888216861
:1011E000C0F308004860206908B16D1C05E0AD1C23
:1011F00003E0216815F8010B4860E08C0028D8D185
:101200004B46002240212046009700F0A4FB08B185
:101210000320CCE7202084F8390084F838800020AF
:10122000C5E70220C3E77047FEE70000044C202119
:101230002046FFF77BF9642000F0B8FDF7E70000D7
:101240000008014030B5184D8FB0D5E90001CDE957
:101250000A0100210AA800F0B5FD144CA060D5E9F0
:101260000201CDE90C0100210CA800F0ABFDE0600B
:10127000142205F110016846FEF7A0FF0021684620
:1012800000F0A4FD2060142205F1240105A8FEF75A
:1012900095FF002105A800F099FD606000F050F96D
:1012A00000F0C2FC0FB030BD542C00081800002024
:1012B0002DE9F04186B0002428480094019402945E
:1012C0000394816941F010018161816901F010018D
:1012D0000491816941F020018161816901F020015F
:1012E0000491816941F004018161816901F0040187
:1012F0000491816941F0080181618069184F00F013
:1013000008000490002230213846FFF713F9DFF877
:1013100054800022F0214046FFF70CF930200125CF
:101320000226CDE90005CDE9024669463846FFF7B9
:101330001FF84FF47040CDE900046946404602941E
:10134000FFF716F8F020CDE90005CDE90246694621
:101350004046FFF70DF806B0BDE8F08100100240EE
:1013600000080140000C0140094810B50749016020
:101370000021416040F6FF718160FFF7E7F8002827
:1013800003D0BDE81040FEF7A5BF10BD00300040FF
:10139000600100200C4810B50A4901604FF4E131AA
:1013A0004160002181600C22C160C0E904128161AA
:1013B000C161FFF7CDFD002803D0BDE81040FEF766
:1013C00089BF10BD003801406C0100200C4810B5E9
:1013D0000A4901604FF4E1314160002181600C2233
:1013E000C160C0E904128161C161FFF7B1FD00284D
:1013F00003D0BDE81040FEF76DBF10BD00440040B3
:10140000AC0100200C4810B50A4901604FF4E131ED
:101410004160002181600C22C160C0E90412816139
:10142000C161FFF795FD002803D0BDE81040FEF72D
:1014300051BF10BD00480040EC010020FEE770B530
:101440004FF6FF7200234AF201050EE0C45C6240D1
:10145000002412F0010F4FEA520200D06A40641CCF
:10146000A4B2082CF5D35B1C9BB28B42EEDBC254BA
:101470005B1C99B2120A425470BD70470907090EED
:10148000002806DA00F00F0000F1E02080F8141DBB
:10149000704700F1E02080F8001470470A2000F047
:1014A00085FCFBE7B8B02C2117A8FEF7A0FE2C2185
:1014B00022A8FEF79CFE2C212DA8FEF798FE1B4CBF
:1014C000194E17AF0DF188080DF1B40904F1100A97
:1014D0004FF6FF75002364221549306801F032F998
:1014E00001281DD114AB502283E880035146684681
:1014F000FEF764FE94E80F0000F084FA2B462922E0
:1015000017A90C48FFF732FE2B46292222A90948C9
:10151000FFF72CFE2B4629222DA90648FFF726FEB1
:10152000012000F043FCD5E700000020000100206E
:10153000A0000020AC0100200A2000F037FCFBE7EF
:1015400000B585B0142206496846FEF737FE002133
:10155000684600F03BFC0349086005B000BD000090
:10156000402C000814000020044800F0A7FB4FF4B2
:101570007A74204600F01AFCFBE70000000100200E
:1015800010B5502080F31188BFF34F8FBFF36F8FDA
:1015900001F042FA18B104494FF080500860002071
:1015A00080F3118810BD000004ED00E030B58FB06D
:1015B00028216846FEF71BFE14210AA8FEF717FE35
:1015C0000920012100904FF48030002404910691FD
:1015D000CDE901040225CDE907504FF4E010099050
:1015E0006846FFF7BFF90F20CDE90A056802CDE98B
:1015F0000C4002210AA80E94FFF788F80FB030BD06
:101600000D48016841F00101016041680B4A114039
:10161000416001680A4A11400160016821F480219B
:101620000160416821F4FE0141604FF41F018160B7
:101630000449C00308607047001002400000FFF832
:10164000FFFFF6FE08ED00E00148FFF738BB0000A1
:101650002C020020F0B50268164B174C174D4FF0C6
:101660008047984205D0B84203D0A04201D0A8429A
:1016700003D122F070064A683243984205D0B8423E
:1016800003D0A04201D0A84203D122F44074CA681A
:10169000224322F080044A69224302608A68C262BF
:1016A0000A688262984201D109690163012141619E
:1016B000F0BD0000002C0140000400400008004084
:1016C00010B5406A0021C185C184FFF7B8FB10BD89
:1016D0000168CA6822F49072CA6001684A6922F0FF
:1016E00001024A61202180F83A10704710B590F845
:1016F0003A10222901D0022010BD8168B1F5805F27
:1017000011D00169002901681FD0496801F07F03E9
:10171000816A4A1C82620B70C18D491E0904090C42
:10172000C18518D02BE00269816A002A02685268DC
:1017300005D0D2B20A80816A491C8162ECE7C2F30B
:1017400008020A80816A891CF7E74A68816A4B1C93
:1017500083620A70E0E70168CA6822F02002CA606A
:101760000168CA6822F48072CA6001684A6922F07E
:1017700001024A61202180F83A10FFF7B5FC0020F1
:1017800010BD00002DE9F041044600680169E268DF
:1017900021F44051114301612169A0680843616946
:1017A00008432168CA6841F20C639A430243CA6045
:1017B00020684169A26921F44071114341614C499B
:1017C00020686425322688423CD1FFF785F800EB7B
:1017D000C00101EB001061688900B0FBF1F7FFF771
:1017E0007BF800EBC00101EB00106168B046890096
:1017F000B0FBF1F0B0FBF5F06FF01801484307EBD8
:10180000800106EB0110B0FBF5F000F0F006FFF7E9
:1018100063F800EBC00101EB001061688900B0FBC8
:10182000F1F0B0FBF5F006EB0016FFF755F800EB12
:10183000C00101EB001061688900B0FBF1F7FFF710
:101840004BF83BE0FFF738F800EBC00101EB00106C
:1018500061688900B0FBF1F7FFF72EF800EBC001DB
:1018600001EB00106168B0468900B0FBF1F0B0FBFD
:10187000F5F06FF01801484307EB800106EB01100B
:10188000B0FBF5F000F0F006FFF716F800EBC00132
:1018900001EB001061688900B0FBF1F0B0FBF5F0DE
:1018A00006EB0016FFF708F800EBC00101EB001093
:1018B00061688900B0FBF1F7FEF7FEFF00EBC001A5
:1018C00001EB001061688900B0FBF1F0B0FBF5F0AE
:1018D0006FF01801484307EB800108EB0110B0FBE3
:1018E000F5F0216800F00F0030448860BDE8F08119
:1018F0000038014090F83910212901D002207047AA
:101900008168B1F5805F016A0BD04A1C02620268EF
:1019100009785160C18C491E0904090CC1840ED09C
:1019200017E009880268C1F30801516001690029C4
:10193000016A02D0491C0162ECE7891CFBE70168DF
:10194000CA6822F08002CA600068C16841F04001A4
:10195000C160002070472DE9F041984617460E46B9
:101960000446069D1DE0681C1BD02DB1FEF7E8FD66
:10197000A0EB0800A84214D92068C16821F4D071F6
:10198000C1602068416921F001014161202084F893
:10199000390084F83A00002084F838000320BDE8BC
:1019A000F0812068006836EA000004D00020B842C8
:1019B000D9D00020F3E70120F9E700000148FFF744
:1019C0003FBA00006C0100200148FFF739BA00005F
:1019D000AC0100200148FFF733BA0000EC01002001
:1019E000FEE702E008C8121F08C1002AFAD17047BA
:1019F0007047002001E001C1121F002AFBD170478F
:101A0000704700000FB42DE9F04FA1B007468B4698
:101A100014462C2279A16846DDF8F8A0DDF8E8909C
:101A2000DDF8C8803C9E349DFEF7C8FB3D988DF8DC
:101A300000A0C0B261287DD05FF002008DF80E00DA
:101A4000300E8DF80F00300C8DF81000300A8DF834
:101A500011008DF812603B9800B2010E8DF8131042
:101A6000010C8DF81410010A8DF815108DF8160070
:101A70000FFA89F0010E8DF81710010C8DF818106F
:101A8000010A8DF819108DF81A004FEA2940010E4D
:101A90008DF81B10010C8DF81C10010A8DF81D101B
:101AA0008DF81E0027216846FFF7C9FC2C2253A1A0
:101AB0000BA8FEF783FB36988DF82C003598C0B242
:101AC00061287DD05FF002008DF83A00280E8DF875
:101AD0003B00280C8DF83C00280A8DF83D00339817
:101AE0008DF83E5000B2010E8DF83F10010C8DF8BC
:101AF0004010010A8DF841108DF842000FFA88F06D
:101B0000010E8DF84310010C8DF84410010A8DF878
:101B100045108DF846004FEA2840010E8DF8471019
:101B2000010C8DF84810010A8DF849108DF84A0013
:101B3000272100E05CE00BA8FFF781FC2C222FA1FD
:101B400016A8FEF73BFB2E988DF858002D98C0B2D2
:101B5000612851D05FF002008DF86600200E8DF8EC
:101B60006700200C8DF86800200A8DF869000FFAD4
:101B70008BF08DF86A40010E8DF86B10010C8DF81A
:101B80006C10010A8DF86D108DF86E0038B2010EE0
:101B90008DF86F10010C8DF87010010A8DF871101E
:101BA0008DF872003814010E8DF87310010C8DF849
:101BB0007410010A8DF875108DF87600272100E069
:101BC00018E016A8FFF73BFC292216A942A8FEF749
:101BD000F5FA29220BA943A8FEF7F0FA2922694653
:101BE00044A8FEF7EBFA21B0BDE8F00F5DF814FB56
:101BF000012023E7012067E70120ADE7001000582E
:101C000000102000000000000000000000000000A4
:101C10000000000000000000000000000003E800D9
:101C2000000001000000000010B5144C8AB02068CC
:101C300028B900226021102000F060FD206060685B
:101C400028B900226021102000F058FD60601422A5
:101C50000B496846FEF7B2FA0021684600F0B6F874
:101C60000749E0601422143105A8FEF7A7FA002105
:101C700005A800F0ABF820610AB010BD00000020FC
:101C8000182C000800207047FEF792FCFFF78EFC2E
:101C9000FFF70EFBFFF768FBFFF77CFBFFF796FBF8
:101CA000FFF7B0FBFFF7CEFA00F087F8FEE701463A
:101CB0000020842900D0C81C704700002DE9F043A3
:101CC00099B08046032040F2DC558DF81000ADF845
:101CD0000050ADF802500024612704204FF4FA6947
:101CE0008DF80C70ADF814004FF47A760294ADF8CC
:101CF0000490ADF80E40ADF8126026482649FEF774
:101D000081FACDE90604C8200A90ADF820500220DF
:101D1000ADF822508DF83000ADF824908DF82C707D
:101D20000125ADF82E40ADF83450ADF832601B48B7
:101D30001B490E94FEF766FA0F906420ADF8400040
:101D4000ADF84200ADF844608DF84C708DF85050FD
:101D50001294ADF84E40ADF85450ADF852601148B1
:101D600011491694FEF74EFA1790202210A908F197
:101D70004000FEF723FA202269464046FEF71EFA8D
:101D8000202208A908F12000FEF718FA19B0BDE8D2
:101D9000F08300000AD7A3703D0AB73FFCA9F1D237
:101DA0004D62503F676D67D7F5B6B53F10B500B9C6
:101DB000012000F059FB002010BD10B500F0ECFB35
:101DC000002010BD03C8002200F098BC3EB50446B8
:101DD0000D46B0F90800FFF76AFF02A9CDE900013E
:101DE000208A2B4682B2D4E9001000F0DBFD0128E6
:101DF00001D000203EBD02983EBD00002DE9F0411B
:101E0000184C0F460546E6682068001D00F076FA7B
:101E100038B9206890F82C1001208840216981434E
:101E20002161681C07D137B12168BDE8F0410E4837
:101E3000091D00F09BBA20683544B5424560216811
:101E400005D2206CBDE8F041091D00F077BAE06BC7
:101E5000091D00F073FAA06A854200D2A562BDE8B0
:101E6000F081000038000020480300202DE9F041F7
:101E7000054600F087FA2E4CA068401CA060206840
:101E80002C4F10B1606940B32DE02560A068012897
:101E900029D1002606EB860007EB800000F040FA0F
:101EA000761C072EF6D323488C3000F039FA2148EF
:101EB000A03000F035FA1F48B43000F031FA1D4868
:101EC000C83000F02DFA1B48DC3000F029FA194820
:101ED0008C30E0631430206405E02068E96AC06A51
:101EE000884200D82560606A401C6062E96A01206F
:101EF000226988401043206101EB810007EB8000DC
:101F0000291D00F033FA00F05DFA606900280CD05A
:101F10002068E96AC06A884207D207494FF08050BA
:101F20000860BFF34F8FBFF36F8FBDE8F0810000F3
:101F3000380000206C02002004ED00E070B5114E66
:101F4000114C17E000F05EFB3068B8B100F002FE03
:101F500000F018FAF068C568281D00F0CFF9A068F5
:101F6000401EA0606068401E606000F02BFA2846AA
:101F700000F01FF860680028E4D170BD00F0EAFDB1
:101F8000F8E70000340300203800002030B4026C71
:101F90000B46002A0BD0C1681144C1604468A142BD
:101FA00001D30168C16030BC1846FEF707B930BCE8
:101FB000704710B50446006B00F018FA2046BDE8E3
:101FC000104000F013BA000010484FF4406142077F
:101FD00006D0C01D0D4920F00700411AC1F540612F
:101FE0000B4A00230144C2E900030839103A21F0EA
:101FF000070111604B600B600B1AC0E9001393607E
:102000004FF000405360D060704700005C03002038
:102010008C000020074C4FF08056074DFFF78EFFD5
:1020200020680128FAD92E60BFF34F8FBFF36F8F5E
:10203000F4E700006C02002004ED00E02DE9F04719
:102040009A46DDE9098481466FF00303206B03EBB8
:1020500082021044089D20F00706700707D0502028
:1020600080F31188BFF34F8FBFF36F8FFEE7231804
:102070000A5C83F834200A5C12B1401C1028F6D3A5
:10208000002784F84370072D00D30625E562C4E9D4
:102090001157201D00F04FF904F1180000F04BF922
:1020A0002461C5F107006462A061E764276584F8D4
:1020B000547052464946304600F00EF92060B8F19F
:1020C000000F01D0C8F80040BDE8F08730B51149D5
:1020D00000E011460A688242FBD34B685C188442D8
:1020E00003D1406818444860084643681C1894426D
:1020F00009D1084C103C2468A24209D052681A4405
:1021000042600A6812680260814200D0086030BDF7
:102110000460F9E78C00002010B5044600F032F9A5
:10212000A06B28B15FF0000400F04CF9204610BD10
:102130000124F9E70648C16B096829B1C16BC96878
:10214000C9684968816270474FF0FF31FAE70000C3
:102150003800002008484068401C4FF0500080F3D1
:10216000118804D0BFF34F8FBFF36F8FFEE7BFF32B
:102170004F8FBFF36F8FFEE7940000202DE9F041F1
:10218000044600F0FFF894F9455004F1240609E0F4
:10219000606A48B1304600F0A3FC08B100F08AF94B
:1021A0006D1E6DB2002DF3DC4FF0FF3684F84560F4
:1021B00000F008F900F0E6F894F9445004F1100733
:1021C00009E0206948B1384600F08AFC08B100F007
:1021D00071F96D1E6DB2002DF3DC84F84460BDE82A
:1021E000F04100F0EFB800002DE9F041054600276E
:1021F00000F008FA314E306808B9FFF7E5FEF068E4
:1022000005424BD1C5B3083568070ED005F007006D
:10221000C0F108000544680707D0502080F31188FA
:10222000BFF34F8FBFF36F8FFEE72DB3706885420A
:1022300034D82248103001460C6801E020460C4694
:102240006168A94202D221680029F7D131688C4225
:1022500024D007682168016060680837411B102995
:102260000FD96019420708D0502080F31188BFF3BE
:102270004F8FBFF36F8FFEE710E041606560FFF79F
:1022800025FF61687068401A7060B268904200D2A1
:10229000B060F06801430020C4E9000100F05AFC7E
:1022A000780707D0502080F31188BFF34F8FBFF31A
:1022B0006F8FFEE73846BDE8F08100007C0000200B
:1022C0000449086818B10868826C521C8264086866
:1022D000704700003800002010B5031F4FF08074D5
:1022E0001C601B1F21F001011960191F024B0B60BC
:1022F000143940380A6010BD55210008D0E9013278
:1023000001699A60D0E901235A604A68824201D18A
:1023100082684A60002202610868401E08607047B7
:1023200000F108014FF0FF32C0E90112C160016104
:1023300000210160704700210161704730B50B68D2
:102340005A1C02D000F1080202E0026904E02246B1
:10235000546825689D42FAD953684B6099608A6039
:10236000516008610168491C016030BD42684A60E3
:1023700093688B6093685960916008610168491C9B
:1023800001607047502080F31188BFF34F8FBFF377
:102390006F8F0A494868401C486001280CD10848E2
:1023A000006810F0FF0F07D0502080F31188BFF3B2
:1023B0004F8FBFF36F8FFEE770470000940000203F
:1023C00004ED00E00849486828B1401E486001D18A
:1023D00080F311887047502080F31188BFF34F8F2E
:1023E000BFF36F8FFEE700009400002070B5002857
:1023F00027D0144DA0F108046168E868014207D1B4
:10240000502080F31188BFF34F8FBFF36F8FFEE72B
:1024100022683AB1502080F31188BFF34F8FBFF389
:102420006F8FFEE78143616000F0ECF860686968D7
:10243000084468602046FFF749FEBDE8704000F0A0
:1024400089BB70BD7C00002006484FF47A7100689B
:10245000B0FBF1F14FF0E020491E4161072101611D
:10246000704700003400002010B5020014D00F485F
:10247000006B38B1502080F31188BFF34F8FBFF34A
:102480006F8FFEE700F0BEF800211046FFF7B6FCA4
:1024900000F060FB002807D105494FF0805008602C
:1024A000BFF34F8FBFF36F8F10BD000038000020C7
:1024B00004ED00E001490120C861704738000020A8
:1024C00010B50C4650B1094909681831FFF736FFBD
:1024D0002046BDE810400121FFF790BC502080F35A
:1024E0001188BFF34F8FBFF36F8FFEE738000020D6
:1024F00070B5040039D01D4DE06A2968C96A884268
:1025000033D2A069002804DB2868C06AC0F1070044
:10251000A061E16A164E01EB8101606906EB810161
:1025200088421FD1201DFFF7E9FE012150B9E06A62
:1025300000EB800256F8222022B92A6901FA00F045
:1025400082432A612868C06AE0622A698140114397
:10255000296100EB800006EB8000211DBDE8704082
:10256000FFF704BF2868C06AE06270BD3800002031
:102570006C02002028B107490A6A0260C9684160FC
:102580007047502080F31188BFF34F8FBFF36F8FD8
:10259000FEE70000380000201CB516480024CDE9F5
:1025A00000402346802214A1154800F0FBF90128C1
:1025B00009D0401C1CD1502080F31188BFF34F8FED
:1025C000BFF36F8FFEE7502080F31188BFF34F8F6A
:1025D000BFF36F8F07484FF0FF312C388162012124
:1025E0004161C460FFF70CFABDE81C4000F04CB834
:1025F0001CBD00006400002049444C450000000060
:10260000152000080248016B491C01637047000057
:102610003800002010B51A4C206B10B10120E06189
:1026200010BD0020E061FFF72DFBA063626B9042BC
:1026300004D92168821ACB6C1A44CA646063206989
:102640001049B0FA80F0C0F11F0000EB800051F893
:1026500020206AB101EB800000F10802416849685E
:102660004160914201D149684160C868206010BD55
:10267000502080F31188BFF34F8FBFF36F8FFEE7B9
:10268000380000206C0200201CB519490878019020
:10269000FF20087008788DF800009DF80000154AAA
:1026A00000F0500010700720906005E09DF80030A9
:1026B0005B008DF80030401E9DF800301B06F5D4FD
:1026C000000200F4E0609060019808700A48016818
:1026D00041F470010160016841F070410160FFF751
:1026E000B3FE00205060FDF71DFD00201CBD000062
:1026F00000E400E09400002020ED00E070B50E46FC
:10270000050013D0D6B105FB06F04830FFF76CFD8D
:10271000040009D004F1480120468EB10160C0E9EF
:102720000F56012100F0C4F8204670BD502080F300
:102730001188BFF34F8FBFF36F8FFEE70020E4E7F0
:102740000060ECE72DE9FF4F002683B09B468A46E8
:10275000040003D0BAF1000F08D011E0502080F33C
:102760001188BFF34F8FBFF36F8FFEE7206C38B136
:10277000502080F31188BFF34F8FBFF36F8FFEE7B8
:1027800000F03CF9DFF824814FF000094FF080574A
:1027900048B9059838B1502080F31188BFF34F8FA6
:1027A000BFF36F8FFEE7FFF7EDFDA56B45B3514615
:1027B0002046E668FFF7EAFBBBF1000F13D0E660A6
:1027C000606A50B104F1240000F08AF928B1C8F819
:1027D0000070BFF34F8FBFF36F8FFFF7F3FD012042
:1027E00007B0BDE8F08F6D1EA563206810B9FFF734
:1027F00067FD606020690028EFD004F11000E3E776
:10280000059808B11EB106E0FFF7DCFD27E0684639
:10281000FFF7B0FE0126FFF7D5FDFFF7F3FEFFF748
:10282000B1FD94F94400401C01D184F8449094F91E
:102830004500401C01D184F84590FFF7C3FD05A970
:10284000684600F079F8002820460AD0FFF796FC89
:1028500000F080F92046FFF75FFC0028A3D000209D
:10286000BEE7FFF759FCD8B1206830B9FFF78AFD01
:102870006068FFF73DFEFFF7A5FD04F12400059910
:10288000FFF71EFE2046FFF779FC00F063F90028F1
:1028900089D1C8F80070BFF34F8FBFF36F8F82E705
:1028A0002046FFF76BFC00F055F97CE704ED00E0F3
:1028B00070B50D46040025D0FFF764FDD4E90F2064
:1028C000216802FB001161600021A1632168A16001
:1028D0000A46D4E90F01401E00FB0121E1602146B8
:1028E0004FF0FF3001F8440F487004F110008DB133
:1028F000FFF716FD04F12400FFF712FDFFF762FD5C
:10290000012070BD502080F31188BFF34F8FBFF3BB
:102910006F8FFEE721690029F0D000F0E1F8002870
:10292000ECD004494FF080500860BFF34F8FBFF3E5
:102930006F8FE3E704ED00E070B50D46040019D099
:1029400005B3FFF71FFD164AD1682868431C0FD056
:102950002368126A934202D062688A421AD9626876
:10296000891A814216D2401A28602046FFF702FEDB
:10297000002410E0502080F31188BFF34F8FBFF385
:102980006F8FFEE7502080F31188BFF34F8FBFF3A6
:102990006F8FFEE70124FFF715FD204670BD000094
:1029A000380000202DE9FF5F8346DDE90E87994658
:1029B00016468A469000FFF717FC05001AD05820EB
:1029C000FFF712FC040012D025630021CDE902417B
:1029D000CDE900874B46324651465846FFF72EFB5D
:1029E0002046FFF743FA012004B0BDE8F09F2846D7
:1029F000FFF7FCFC4FF0FF30F6E7000005484169A7
:102A000019B1006B18B100207047012070470220F7
:102A100070470000380000202DE9F0412E4C0027BF
:102A2000206B40B1A069401CA061E06900B10127A2
:102A30003846BDE8F081E668761CE66013D1E06BAD
:102A4000006838B1502080F31188BFF34F8FBFF377
:102A50006F8FFEE7E06B216CE1632064206A401C0D
:102A60002062FFF767FBA06ADFF87080864209D317
:102A7000E06B006880B1E06BC068C568686886423A
:102A80000DD2A0622068C06A00EB800158F82100D6
:102A90000128CAD90127C8E74FF0FF30F1E7281D08
:102AA000FFF72CFCA86A18B105F11800FFF726FC07
:102AB000E86A0121226981401143216100EB800114
:102AC00008EB8100291DFFF751FCE86A2168C96AFB
:102AD0008842CDD30127CBE7380000206C020020CC
:102AE0002DE9F041C068C468ACB104F11800074694
:102AF000FFF704FC154D286B0126A0B13946144898
:102B0000FFF734FCE06A2968C96A88421CD90120B1
:102B1000EE61BDE8F081502080F31188BFF34F8F44
:102B2000BFF36F8FFEE7201DFFF7E8FBE16A2A691C
:102B300006FA01F01043286101EB81000449B43921
:102B400001EB8000211DDBE70020E2E738000020D8
:102B5000200300202DE9F0472C4D00242746286B48
:102B600038B1FFF70FFC286B401E2863286B40B17B
:102B700046E0502080F31188BFF34F8FBFF36F8F73
:102B8000FEE7A968224E0120D1B3A6F1B409804620
:102B90003068E8B1F068C46804F11800FFF7AEFBD4
:102BA000201DFFF7ABFBE06A2A6908FA00F1114328
:102BB000296100EB800109EB8100211DFFF7D6FBA5
:102BC000E06A2968C96A8842E2D3C5F81C80DFE759
:102BD0000CB1FFF7AFFAAC6944B14646FFF71CFFF2
:102BE00000B1EE61641EF9D10020A861E86938B136
:102BF0000849012738070860BFF34F8FBFF36F8F75
:102C0000FFF7E0FB3846BDE8F08700003800002001
:102C10002003002004ED00E0A42C00089D1400080F
:102C2000000000000000000080000000B02C000840
:102C3000A514000800000000000000008000000053
:102C4000C02C00086915000800000000000000000A
:102C500080000000100000000200000010000000D2
:102C600002000000D42C0008391500080000000004
:102C70000000000080000000CC2C00082D1200088D
:102C8000FEFF0000000000008000000000000000C7
:102C9000000000000102030406070809000000000C
:102CA00001020304646174615265635461736B00D3
:102CB0006461746153656E645461736B000000005D
:102CC000737465707065725461736B006C656454E5
:102CD00061736B0064656661756C745461736B003D
:102CE000002D000800000020A0000000E2190008EC
:102CF000A02D0008A0000020C0120000F21900085A
:102D000000000000000000000000000000000000C3
:102D100000000000000000000000000000000000B3
:102D20000000000000000000010000001000000092
:102D30000000000000A24A040000000000000000A3
:102D40000000000000000000000000000000000083
:102D50000000000000000000000000000000000073
:102D60000000000000000000000000000000000063
:102D70000000000000000000000000000000000053
:102D80000000000000000000000000000000000043
:102D90000000000000000000AAAAAAAA000000008B
:04000005080000ED02
:00000001FF
