:020000040800F2
:10000000E8120020990100081B110008090F0008E0
:1000100019110008D10200084D140008000000006A
:1000200000000000000000000000000001010008C6
:10003000D302000800000000450100089D110008DF
:10004000B3010008B3010008B3010008B3010008C0
:10005000B3010008B3010008B3010008B3010008B0
:10006000B3010008B3010008B3010008B3010008A0
:10007000B3010008B3010008B3010008B301000890
:10008000B3010008B3010008B3010008B301000880
:10009000B3010008B3010008B3010008B301000870
:1000A000B301000865120008B3010008B30100089D
:1000B000B3010008B3010008B3010008B301000850
:1000C000B3010008B3010008B3010008B301000840
:1000D000B3010008B3010008B3010008B301000830
:1000E000B3010008B3010008B3010008DFF80CD029
:1000F00000F0DCF80048004773140008E812002004
:10010000224B19680868B0E8F00F80F30988BFF344
:100110006F8F4FF0000080F311884EF00D0E704786
:100120000000000006480068006880F3088862B696
:1001300061B6BFF34F8FBFF36F8F00DF00BF00BF0B
:1001400008ED00E0EFF30980BFF36F8F0F4B1A68E3
:1001500020E9F00F106008B54FF0500080F31188CF
:10016000BFF34F8FBFF36F8F01F072FD4FF00000B0
:1001700080F31188BDE8084019680868B0E8F00FFE
:1001800080F30988BFF36F8F704700BF2400002001
:10019000EFF3058070470000064880470648004797
:1001A000FEE7FEE7FEE7FEE7FEE7FEE7FEE7FEE727
:1001B000FEE7FEE71D120008ED00000840EA01031B
:1001C0009B0703D009E008C9121F08C0042AFAD20D
:1001D00003E011F8013B00F8013B521EF9D27047D1
:1001E000D2B201E000F8012B491EFBD27047002279
:1001F000F6E710B513460A4604461946FFF7F0FF26
:10020000204610BD01F0004330B421F0004150EA17
:10021000010206D00A0DA2F56072C1F31301002A93
:1002200002DC30BC00207047440F44EAC104C10026
:10023000E01830BC00EBC250AFF300800029A8BF2B
:100240007047401C490008BF20F00100704710B4FF
:10025000B0FA80FC00FA0CF050EA010404BF10BCB4
:10026000704749B1CCF1200421FA04F411FA0CF1E1
:1002700018BF012121430843A3EB0C01CB1D4FEA1A
:1002800000614FEA102042BF002010BC704700EB15
:10029000C35010440029A4BF10BC7047401C490043
:1002A00008BF20F0010010BC70470000064C074D4D
:1002B00006E0E06840F0010394E807009847103436
:1002C000AC42F6D3FFF716FFE42000080421000833
:1002D000FEE77047704700002DE9F84FDFF890A166
:1002E00000220AF1040B144601274FF00F090BF10D
:1002F000040E00BF0B6807FA04F52B40AB4274D123
:10030000DFF870C14E68A6EB0C0866452BD00DDCFB
:10031000032E34D005DC36B3012E19D0022E2FD196
:100320001BE0112E16D0122E2AD119E0B8F5881F25
:1003300019D006DCB8F5803F15D0B8F5801F1FD165
:1003400011E0B8F5001F0ED0B8F5041F18D10AE06F
:10035000CA6815E0CA68121D12E0CA6808320FE0C8
:10036000CA680C320CE08A682AB1012A4FF00802F0
:1003700003D0456104E0042202E0056100E00022B0
:10038000FF2B01D8064601E000F104064FEA840580
:1003900001D9A5F12005D6F800C009FA05F82CEA24
:1003A000080C02FA05F54CEA050CC6F800C04D68C9
:1003B000ED0057D5304DAE6946F00106AE61AD692E
:1003C00024F0030605F0010500952C4D06EB050C05
:1003D000DCF80850A6074FEA167809FA08F6B54384
:1003E000274EB04202D1002610E03BE0254EB0423D
:1003F00001D101260AE0244EB04201D1022605E0D7
:10040000224EB04201D1032600E0042606FA08F687
:100410002E43CCF808604D68DAF80060ED035546CD
:1004200001D51E4300E09E432E604D68DBF800605E
:10043000AD035D4601D51E4300E09E432E604D682E
:10044000DEF80060ED02754601D51E4300E09E43D4
:100450002E604D68AD020E4D2E6801D51E4300E0A2
:100460009E432E60641C102CFFF444AFBDE8F88F4F
:100470000004014000001110001002400000014083
:1004800000080140000C0140001001400014014030
:100490000C040140C2684A40C26070470AB1016161
:1004A00070470904FBE700000148806870470000BE
:1004B0001400002070B5040011D021684CF6CC4027
:1004C0000860216845F255500860D4E90001416098
:1004D0002168A0688860FFF7E7FF054609E0012072
:1004E00070BD00BFFFF7E0FF401B302801D903209B
:1004F00070BD2068C0680028F4D121684AF6AA209F
:100500000860002070BD00684AF6AA210160002042
:10051000704700000248816802781144816070478A
:1005200014000020074810B5016841F01001016077
:10053000032000F093F8002000F006F800F03EF8E9
:10054000002010BD0020024000B5014687B0002207
:10055000192000F063F8192000F054F8134881695D
:1005600041F400618161806905A900F40060069092
:10057000684600F03BF900F069F90D490D4AB0FBFF
:10058000F1F10D48491E0260416040F2E73200215E
:10059000C0E90321816000F023FB10B1012007B006
:1005A00000BD054800F038FBF9E7000000100240EC
:1005B00040420F00002C0140B80100200F4808B550
:1005C000816941F001018161816901F001010091BE
:1005D000C16941F08051C161C069002200F08050C2
:1005E00000900F21901E00F019F80548416821F095
:1005F000E06141F00071416008BD00000010024060
:100600000000014000F01F020121914040098000DC
:1006100000F1E020C0F8001170470000F0B40E4B6C
:100620001B680C46C3F30223C3F10705042D00D950
:100630000425191D072901D2002300E0DB1E012635
:1006400006FA05F1491E214099409E40761E16404B
:100650003143F0BC00F062BD0CED00E0064900F053
:10066000070208684FF6FF03184040EA0220034AD9
:1006700010430860704700000CED00E00000FA0530
:100680002DE9F047DFF8548105460E46D8F8000002
:1006900000F00700B0420CD2D8F8001021F007019A
:1006A0003143C8F80010D8F8000000F00700B0424D
:1006B0006FD128684A4C810712D5400703D560687E
:1006C00040F4E06060602878000703D5606840F47B
:1006D000605060606068A96820F0F00008436060C6
:1006E0002878C00744D06868012816D021680228FD
:1006F00016D0890700294CDA616821F00301014313
:100700006160FFF7D1FE6968074641F28830012930
:100710000ED00229814618D026E021688903E9E736
:100720008901E7E7FFF7C0FEC11B494501D918E081
:1007300081466068C0F381000128F3D118E000BF52
:10074000FFF7B2FEC11B49450BD86068C0F38100BA
:100750000228F5D10CE000BFFFF7A6FEC11B4945FA
:1007600002D90320BDE8F087606810F00C0FF3D1C8
:10077000D8F80010404601F00701B1420BD90168DA
:1007800021F0070131430160006800F00700B0422A
:1007900001D00120E6E72878400705D56068E968C0
:1007A00020F4E060084360602878000706D56068A0
:1007B000296920F4605040EAC100606000F056F8FA
:1007C0006168084AC1F30311515CC84006490860DA
:1007D0000020FFF7B9FE0020C4E70000002002401F
:1007E00000100240AC200008200000200F22026010
:1007F0000C4A536803F003034360536803F0F003AB
:100800008360536803F4E063C36052684FF4E063AD
:1008100003EAD20202610448006800F007000860A1
:1008200070470000001002400020024004480549C3
:1008300000684968044AC1F30221515CC84070470E
:100840002000002000100240BC2000080448054998
:1008500000684968044AC1F3C221515CC84070472E
:100860002000002000100240BC20000812A185B02A
:100870000FC98DE80F0014A0144A00680490516855
:10088000134801F00C03042B10D0082B0ED1C1F338
:100890008343C9031DF803000AD5516804AAC1F3B4
:1008A0004041515C0A4A5043B0FBF1F005B070473B
:1008B00008494843FAE7000002030405060708094F
:1008C0000A0B0C0D0E0F1010010200000010024068
:1008D00000127A0000093D002DE9F84F0446007827
:1008E000B94DC00748D06868C0F38100012807D01F
:1008F0006868C0F38100022809D16868C00306D582
:100900002868800338D5606800286FD034E06068BC
:10091000B0F5803F0BD010B1B0F5A02F11D02868F2
:1009200020F480302860286820F4802002E02868C5
:1009300040F480302860606888B1FFF7B5FD064656
:1009400009E0286840F480202860F0E7FFF7ACFD5C
:10095000801B642875D828688003F7D50CE0FFF762
:10096000A3FD064605E000BFFFF79EFD801B64283F
:10097000F0D828688003F7D42078944E80074FF091
:1009800001094FF000083BD5686810F00C0F07D044
:100990006868C0F38100022809D16868C00306D4E2
:1009A0002868800714D5206901281FD110E020692C
:1009B000B0B1C6F80090FFF777FD074605E000BF2D
:1009C000FFF772FDC01B0228C4D828688007F7D53E
:1009D0002868616920F0F80040EAC10028600FE053
:1009E000C6F80080FFF760FD074606E0E9E000BFBB
:1009F000FFF75AFDC01B022823D828688007F7D4C8
:100A0000207800072CD57248A169D9B1C0F80090B0
:100A1000FFF74AFD074604E0FFF746FDC01B02282A
:100A20000FD8686A8007F7D56A484FF4FA51006812
:100A3000B0FBF1F0009000BF0098411E0091FAD287
:100A40000EE080E0C0F80080FFF72EFD074604E0CE
:100A5000FFF72AFDC01B022875D8686A8007F7D403
:100A60002078400760D5E8690027C00008D4E8690D
:100A700040F08050E861E869012700F08050009064
:100A800055480168C90513D40168834641F4807153
:100A90000160FFF709FD824606E000BFFFF704FD95
:100AA000A0EB0A0064284ED8DBF80000C005F5D59D
:100AB000E06801280AD008B1052813D0286A20F080
:100AC00001002862286A20F0040002E0286A40F051
:100AD00001002862E06841F2883B98B1FFF7E4FC2E
:100AE00082460BE0286A40F004002862EEE700BF6F
:100AF000FFF7DAFCA0EB0A0159455AD8286A8007AB
:100B0000F6D50CE0FFF7D0FC824605E0FFF7CCFC01
:100B1000A0EB0A0159454CD8286A8007F6D41FB1CA
:100B2000E86920F08050E861E06988B36968C1F342
:100B30008101022945D00228C6F8608004D0FFF761
:100B4000B3FC044638E034E0FFF7AEFC074604E0AF
:100B5000FFF7AAFCC01B02282BD828688001F7D415
:100B6000206AB0F5803F05D16868A16820F40030A4
:100B700008436860D4E908010843696821F47411E6
:100B800008436860C6F86090FFF78EFC044606E0F4
:100B900015E000BFFFF788FC001B022809D8286871
:100BA0008001F7D50BE000BFFFF77EFC001B022899
:100BB00002D90320BDE8F88F28688001F4D4002012
:100BC000F8E70120F6E70000001002400000424272
:100BD00080044242200000200070004070477047AF
:100BE00010B5040003D094F83D0010B107E00120D7
:100BF00010BD002084F83C00204600F00CF80220D4
:100C000084F83D00211D206800F032FB012084F8AB
:100C10003D00002010BD70470168CA6842F0010223
:100C2000CA600068016841F001010160002070475E
:100C3000704770B50446006801694FF00005C9436C
:100C4000890715D4C168C943890711D4E91E016118
:100C500001202077206880698007204602D0FFF7B6
:100C6000E7FF04E000F098F8204600F096F82577BA
:100C700020680169C943490717D4C168C9434907B6
:100C800013D46FF00401016102202077206880698D
:100C900010F4407F204602D0FFF7CAFF04E000F0C6
:100CA0007BF8204600F079F8257720680169C94370
:100CB000090716D4C168C943090712D46FF00801A7
:100CC0000161042020772068C0698007204602D097
:100CD000FFF7AEFF04E000F05FF8204600F05DF89B
:100CE000257720680169C943C90617D4C168C9437B
:100CF000C90613D46FF01001016108202077206825
:100D0000C06910F4407F204602D0FFF791FF04E055
:100D100000F042F8204600F040F82577206801698D
:100D2000C943C90708D1C168C943C90704D1891E8D
:100D30000161204600F032F820680169C9430906C4
:100D400009D4C168C943090605D46FF08001016167
:100D50002046FFF743FF20680169C943490609D4CB
:100D6000C168C943490605D46FF0400101612046BE
:100D700000F01EF820680169C94389060BD4C168D8
:100D8000C943890607D46FF0200101612046BDE800
:100D90007040FFF724BF70BD70477047006803497B
:100DA000884201D1FFF7B6BB70470000002C01401C
:100DB000704770B5040004D094F83900002510B1D4
:100DC00006E0012070BD84F83850204600F022F87B
:100DD000242084F839002068C16821F40051C160E2
:100DE000204600F07BFA2068016921F490410161FE
:100DF0002068416921F02A0141612068C16841F4FD
:100E00000051C160E563202084F8390084F83A007D
:100E1000002070BDF0B585B00024009401940294C8
:100E200003940368324F022032490322324D4602B6
:100E3000BB421AD18B6943F480438B618B6903F405
:100E4000804304938B6943F004038B6189690392A7
:100E500001F0040104910102CDE900106946284621
:100E6000FFF73AFACDE900641CE0244FBB4220D1E1
:100E7000CB6943F40033CB61CB6903F400330493B3
:100E80008B6943F004038B618969039201F00401CB
:100E900004910421CDE9001069462846FFF71CFAA9
:100EA000082022E0694628460294FFF715FA05B0AB
:100EB000F0BD134DAB42FAD1CB6943F48023CB6133
:100EC000CB6903F4802304938B6943F008038B619F
:100ED00089690C4D01F00801CDE90321CDE90060DD
:100EE00069462846FFF7F8F9E814CDE90004D9E788
:100EF000003801400010024000080140004400405A
:100F000000480040000C0140FEE70000044C202196
:100F10002046FFF7BFFA142000F03CFBF7E7000083
:100F20000008014030B5174D8FB0D5E90001CDE97B
:100F30000A0100210AA800F039FB134CA060D5E992
:100F40000201CDE90C0100210CA800F02FFBE060AC
:100F5000142205F110016846FFF730F900216846B8
:100F600000F028FB2060142205F1240105A8FFF7FA
:100F700025F9002105A800F01DFB606000F0E8F8ED
:100F80000FB030BD74200008040000202DE9F041AE
:100F900086B0002428480094019402940394816947
:100FA00041F010018161816901F0100104918169B2
:100FB00041F020018161816901F020010491816982
:100FC00041F004018161816901F0040104918169AA
:100FD00041F0080181618069184F00F00800049019
:100FE000002230213846FFF759FADFF854800022FA
:100FF000F0214046FFF752FA302001250226CDE9C4
:101000000005CDE9024669463846FFF765F94FF419
:101010007040CDE90004694640460294FFF75CF950
:10102000F020CDE90005CDE9024669464046FFF7CC
:1010300053F906B0BDE8F0810010024000080140FD
:10104000000C0140094810B50749016000214160CA
:1010500040F6FF718160FFF72DFA002803D0BDE84C
:101060001040FFF737B910BD00300040EC00002001
:101070000C4810B50A4901604FF4E131416000218C
:1010800081600C22C160C0E904128161C161FFF777
:1010900090FE002803D0BDE81040FFF71BB910BD3B
:1010A00000380140F80000200C4810B50A490160E2
:1010B0004FF4E1314160002181600C22C160C0E940
:1010C00004128161C161FFF774FE002803D0BDE8FE
:1010D0001040FFF7FFB810BD004400403801002069
:1010E0000C4810B50A4901604FF4E131416000211C
:1010F00081600C22C160C0E904128161C161FFF707
:1011000058FE002803D0BDE81040FFF7E3B810BD3B
:101110000048004078010020FEE770470907090EEB
:10112000002806DA00F00F0000F1E02080F8141D1E
:10113000704700F1E02080F8001470470348FFF783
:10114000E2F90A2000F026FAF8E70000EC0000209F
:1011500000B585B0142206496846FFF72FF8002134
:10116000684600F027FA0349086005B000BD00009A
:101170006020000800000020064800F093F9064CAB
:101180004FF47A7510212046FFF784F9284600F0C5
:1011900001FAF7E78C0000200008014010B550204C
:1011A00080F31188BFF34F8FBFF36F8F00F058FEAD
:1011B00018B104494FF080500860002080F3118876
:1011C00010BD000004ED00E030B58FB02821684666
:1011D000FFF70DF814210AA8FFF709F809200121EB
:1011E00000904FF48030002404910691CDE9010471
:1011F0000225CDE907504FF4E01009906846FFF74B
:101200006BFB0F20CDE90A056802CDE90C400221F5
:101210000AA80E94FFF734FA0FB030BD0D480168EC
:1012200041F00101016041680B4A114041600168D1
:101230000A4A11400160016821F48021016041687F
:1012400021F4FE0141604FF41F0181600449C00395
:1012500008607047001002400000FFF8FFFFF6FE34
:1012600008ED00E00148FFF7E4BC0000B8010020F1
:10127000F0B50268164B174C174D4FF08047984257
:1012800005D0B84203D0A04201D0A84203D122F039
:1012900070064A683243984205D0B84203D0A04253
:1012A00001D0A84203D122F44074CA68224322F03C
:1012B00080044A69224302608A68C2620A688262C4
:1012C000984201D10969016301214161F0BD00002B
:1012D000002C014000040040000800402DE9F041CE
:1012E000044600680169E26821F44051114301613C
:1012F0002169A0680843616908432168CA6841F20E
:101300000C639A430243CA6020684169A26921F4D0
:101310004071114341614C4920686425322688425E
:101320003CD1FFF793FA00EBC00101EB00106168BC
:101330008900B0FBF1F7FFF789FA00EBC00101EB80
:1013400000106168B0468900B0FBF1F0B0FBF5F029
:101350006FF01801484307EB800106EB0110B0FB6A
:10136000F5F000F0F006FFF771FA00EBC00101EBB9
:10137000001061688900B0FBF1F0B0FBF5F006EBFE
:101380000016FFF763FA00EBC00101EB0010616883
:101390008900B0FBF1F7FFF759FA3BE0FFF746FA97
:1013A00000EBC00101EB001061688900B0FBF1F7B0
:1013B000FFF73CFA00EBC00101EB00106168B0469A
:1013C0008900B0FBF1F0B0FBF5F06FF01801484375
:1013D00007EB800106EB0110B0FBF5F000F0F00622
:1013E000FFF724FA00EBC00101EB001061688900EF
:1013F000B0FBF1F0B0FBF5F006EB0016FFF716FAC4
:1014000000EBC00101EB001061688900B0FBF1F74F
:10141000FFF70CFA00EBC00101EB001061688900D6
:10142000B0FBF1F0B0FBF5F06FF01801484307EBAB
:10143000800108EB0110B0FBF5F0216800F00F000F
:1014400030448860BDE8F08100380140FEE702E0EA
:1014500008C8121F08C1002AFAD17047704700203F
:1014600001E001C1121F002AFBD170477047002024
:101470007047FFF757F8FFF7A7FEFFF787FDFFF765
:10148000E1FDFFF7F5FDFFF70FFEFFF729FEFFF780
:1014900049FD00F086F8FEE701460020842900D0CF
:1014A000C81C70472DE9F04399B08046032040F2F4
:1014B000DC558DF81000ADF80050ADF80250002456
:1014C000612704204FF4FA698DF80C70ADF8140010
:1014D0004FF47A760294ADF80490ADF80E40ADF872
:1014E000126026482649FEF78DFECDE90604C82085
:1014F0000A90ADF820500220ADF822508DF830004F
:10150000ADF824908DF82C700125ADF82E40ADF883
:101510003450ADF832601B481B490E94FEF772FE42
:101520000F906420ADF84000ADF84200ADF8446083
:101530008DF84C708DF850501294ADF84E40ADF8C7
:101540005450ADF85260114811491694FEF75AFEF6
:101550001790202210A908F14000FEF72FFE20224C
:1015600069464046FEF72AFE202208A908F120001D
:10157000FEF724FE19B0BDE8F08300000AD7A3707F
:101580003D0AB73FFCA9F1D24D62503F676D67D766
:10159000F5B6B53F10B500B9012000F0F5FA00200E
:1015A00010BD10B500F016FB002010BD03C80022CE
:1015B00000F0C2BB3EB504460D46B0F90800FFF787
:1015C0006BFF02A9CDE90001208A2B4682B2D4E943
:1015D000001000F019FC012801D000203EBD029847
:1015E0003EBD00002DE9F041184C0F460546E66867
:1015F0002068001D00F012FA38B9206890F82C100D
:1016000001208840216981432161681C07D137B1DD
:101610002168BDE8F0410E48091D00F037BA206886
:101620003544B5424560216805D2206CBDE8F041E3
:10163000091D00F013BAE06B091D00F00FFAA06A53
:10164000854200D2A562BDE8F081000024000020A0
:10165000D40200202DE9F041054600F023FA2E4C7B
:10166000A068401CA06020682C4F10B1606940B396
:101670002DE02560A068012829D1002606EB860010
:1016800007EB800000F0DCF9761C072EF6D3234828
:101690008C3000F0D5F92148A03000F0D1F91F4876
:1016A000B43000F0CDF91D48C83000F0C9F91B482E
:1016B000DC3000F0C5F919488C30E0631430206448
:1016C00005E02068E96AC06A884200D82560606A3F
:1016D000401C6062E96A0120226988401043206151
:1016E00001EB810007EB8000291D00F0CFF900F02D
:1016F000F9F9606900280CD02068E96AC06A88425C
:1017000007D207494FF080500860BFF34F8FBFF3F7
:101710006F8FBDE8F081000024000020F801002058
:1017200004ED00E070B5114E114C17E000F088FA9E
:101730003068B8B100F032FC00F0B4F9F068C56868
:10174000281D00F06BF9A068401EA0606068401E74
:10175000606000F0C7F9284600F00CF860680028C7
:10176000E4D170BD00F01AFCF8E70000C0020020D0
:101770002400002010B50446006B00F0C7F9204695
:10178000BDE8104000F0C2B910484FF44061420774
:1017900006D0C01D0D4920F00700411AC1F5406177
:1017A0000B4A00230144C2E900030839103A21F032
:1017B000070111604B600B600B1AC0E900139360C6
:1017C0004FF000405360D06070470000E8020020F6
:1017D00078000020074C4FF08056074DFFF7A2FF1E
:1017E00020680128FAD92E60BFF34F8FBFF36F8FA7
:1017F000F4E70000F801002004ED00E02DE9F047D7
:101800009A46DDE9098481466FF00303206B03EB00
:1018100082021044089D20F00706700707D0502070
:1018200080F31188BFF34F8FBFF36F8FFEE723184C
:101830000A5C83F834200A5C12B1401C1028F6D3ED
:10184000002784F84370072D00D30625E562C4E91C
:101850001157201D00F0FFF804F1180000F0FBF80C
:101860002461C5F107006462A061E764276584F81C
:10187000547052464946304600F0BEF82060B8F138
:10188000000F01D0C8F80040BDE8F08730B511491D
:1018900000E011460A688242FBD34B685C18844220
:1018A00003D1406818444860084643681C189442B5
:1018B00009D1084C103C2468A24209D052681A444D
:1018C00042600A6812680260814200D0086030BD40
:1018D0000460F9E7780000200648C16B096829B167
:1018E000C16BC968C9684968816270474FF0FF31B0
:1018F000FAE700002400002008484068401C4FF030
:10190000500080F3118804D0BFF34F8FBFF36F8F67
:10191000FEE7BFF34F8FBFF36F8FFEE7800000201D
:101920002DE9F0410546002700F08AF9314E306874
:1019300008B9FFF729FFF06805424BD1C5B3083558
:1019400068070ED005F00700C0F1080005446807DD
:1019500007D0502080F31188BFF34F8FBFF36F8FF4
:10196000FEE72DB37068854234D822481030014616
:101970000C6801E020460C466168A94202D2216849
:101980000029F7D131688C4224D0076821680160B2
:1019900060680837411B10290FD96019420708D029
:1019A000502080F31188BFF34F8FBFF36F8FFEE796
:1019B00010E041606560FFF769FF61687068401A78
:1019C0007060B268904200D2B060F06801430020BD
:1019D000C4E9000100F0E2FA780707D0502080F354
:1019E0001188BFF34F8FBFF36F8FFEE73846BDE816
:1019F000F08100006800002010B5031F4FF08074D4
:101A00001C601B1F21F001011960191F024B0B60A4
:101A1000143940380A6010BDF9180008D0E90132C5
:101A200001699A60D0E901235A604A68824201D173
:101A300082684A60002202610868401E08607047A0
:101A400000F108014FF0FF32C0E90112C1600161ED
:101A500000210160704700210161704730B50B68BB
:101A60005A1C02D000F1080202E0026904E022469A
:101A7000546825689D42FAD953684B6099608A6022
:101A8000516008610168491C016030BD42684A60CC
:101A900093688B6093685960916008610168491C84
:101AA00001607047502080F31188BFF34F8FBFF360
:101AB0006F8F0A494868401C486001280CD10848CB
:101AC000006810F0FF0F07D0502080F31188BFF39B
:101AD0004F8FBFF36F8FFEE770470000800000203C
:101AE00004ED00E00849486828B1401E486001D173
:101AF00080F311887047502080F31188BFF34F8F17
:101B0000BFF36F8FFEE700008000002070B5002853
:101B100027D0144DA0F108046168E868014207D19C
:101B2000502080F31188BFF34F8FBFF36F8FFEE714
:101B300022683AB1502080F31188BFF34F8FBFF372
:101B40006F8FFEE78143616000F07AF86068696832
:101B5000084468602046FFF799FEBDE8704000F039
:101B60001DBA70BD6800002006484FF47A71006805
:101B7000B0FBF1F14FF0E020491E41610721016106
:101B8000704700002000002010B5020014D00F485C
:101B9000006B38B1502080F31188BFF34F8FBFF333
:101BA0006F8FFEE700F04CF800211046FFF71AFD9A
:101BB00000F0F4F9002807D105494FF08050086083
:101BC000BFF34F8FBFF36F8F10BD000024000020C4
:101BD00004ED00E01CB516480024CDE90040234682
:101BE000802214A1154800F00FF9012809D0401CEB
:101BF0001CD1502080F31188BFF34F8FBFF36F8F3C
:101C0000FEE7502080F31188BFF34F8FBFF36F8F33
:101C100007484FF0FF312C38816201214161C460D7
:101C2000FFF724FCBDE81C4000F04CB81CBD0000D0
:101C30005000002049444C4500000000D517000822
:101C40000248016B491C016370470000240000201A
:101C500010B51A4C206B10B10120E06110BD0020BE
:101C6000E061FFF704FCA063626B904204D9216835
:101C7000821ACB6C1A44CA64606320691049B0FAB6
:101C800080F0C0F11F0000EB800051F820206AB105
:101C900001EB800000F1080241684968416091420F
:101CA00001D149684160C868206010BD502080F3B0
:101CB0001188BFF34F8FBFF36F8FFEE72400002022
:101CC000F80100201CB5194908780190FF20087020
:101CD00008788DF800009DF80000154A00F05000CB
:101CE00010700720906005E09DF800305B008DF8D3
:101CF0000030401E9DF800301B06F5D4000200F4B1
:101D0000E0609060019808700A48016841F4700131
:101D10000160016841F070410160FFF725FF00207C
:101D20005060FEF7FFF900201CBD000000E400E059
:101D30008000002020ED00E070B50E46050013D0B5
:101D4000D6B105FB06F04830FFF7EAFD040009D0E4
:101D500004F1480120468EB10160C0E90F5601210F
:101D600000F00EF8204670BD502080F31188BFF3BC
:101D70004F8FBFF36F8FFEE70020E4E70060ECE7D2
:101D800070B50D46040025D0FFF78CFED4E90F2076
:101D9000216802FB001161600021A1632168A1603C
:101DA0000A46D4E90F01401E00FB0121E1602146F3
:101DB0004FF0FF3001F8440F487004F110008DB16E
:101DC000FFF73EFE04F12400FFF73AFEFFF78AFE1C
:101DD000012070BD502080F31188BFF34F8FBFF3F7
:101DE0006F8FFEE721690029F0D000F09DF80028F0
:101DF000ECD004494FF080500860BFF34F8FBFF321
:101E00006F8FE3E704ED00E02DE9FF5F8346DDE936
:101E10000E87994616468A469000FFF781FD050019
:101E20001AD05820FFF77CFD040012D02563002152
:101E3000CDE90241CDE900874B463246514658462E
:101E4000FFF7DCFC2046FFF705FC012004B0BDE8ED
:101E5000F09F2846FFF75AFE4FF0FF30F6E70000EC
:101E60002DE9F0412E4C0027206B40B1A069401CA9
:101E7000A061E06900B101273846BDE8F081E6685D
:101E8000761CE66013D1E06B006838B1502080F317
:101E90001188BFF34F8FBFF36F8FFEE7E06B216CAC
:101EA000E1632064206A401C2062FFF715FDA06AF0
:101EB000DFF87080864209D3E06B006880B1E06B88
:101EC000C068C568686886420DD2A0622068C06A92
:101ED00000EB800158F821000128CAD90127C8E782
:101EE0004FF0FF30F1E7281DFFF798FDA86A18B101
:101EF00005F11800FFF792FDE86A0121226981408F
:101F00001143216100EB800108EB8100291DFFF7DF
:101F1000BDFDE86A2168C96A8842CDD30127CBE7B5
:101F200024000020F80100202DE9F041C068C468B9
:101F3000ACB104F118000746FFF770FD154D286B92
:101F40000126A0B139461448FFF7A0FDE06A2968D0
:101F5000C96A88421CD90120EE61BDE8F081502099
:101F600080F31188BFF34F8FBFF36F8FFEE7201D03
:101F7000FFF754FDE16A2A6906FA01F0104328616F
:101F800001EB81000449B43901EB8000211DDBE73E
:101F90000020E2E724000020AC0200202DE9F047F9
:101FA0002C4D00242746286B38B1FFF77BFD286BAA
:101FB000401E2863286B40B146E0502080F3118812
:101FC000BFF34F8FBFF36F8FFEE7A968224E01204A
:101FD000D1B3A6F1B40980463068E8B1F068C468AE
:101FE00004F11800FFF71AFD201DFFF717FDE06A46
:101FF0002A6908FA00F11143296100EB800109EB1D
:102000008100211DFFF742FDE06A2968C96A884204
:10201000E2D3C5F81C80DFE70CB1FFF75DFCAC69CB
:1020200044B14646FFF71CFF00B1EE61641EF9D1D2
:102030000020A861E86938B108490127380708601D
:10204000BFF34F8FBFF36F8FFFF74CFD3846BDE8EE
:10205000F087000024000020AC02002004ED00E026
:10206000C4200008791100080000000000000000F2
:1020700080000000100000000200000010000000BE
:1020800002000000D82000083D11000800000000F8
:102090000000000080000000D02000080D0F0008A4
:1020A000FEFF0000000000008000000000000000B3
:1020B00000000000010203040607080900000000F8
:1020C00001020304737465707065725461736B0070
:1020D0006C65645461736B0064656661756C7454FF
:1020E00061736B0004210008000000208C000000D8
:1020F0004E140008902100088C0000205C120000A3
:102100005E14000800000000000000000000000055
:1021100000000000000000000100000010000000AE
:102120000000000000A24A040000000000000000BF
:10213000000000000000000000000000000000009F
:10214000000000000000000000000000000000008F
:10215000000000000000000000000000000000007F
:10216000000000000000000000000000000000006F
:10217000000000000000000000000000000000005F
:102180000000000000000000AAAAAAAA00000000A7
:04000005080000ED02
:00000001FF
